{
  "_format": "hh-sol-artifact-1",
  "contractName": "ProfileImageNfts",
  "sourceName": "contracts/MintProfileImage.sol",
  "abi": [
    {
      "inputs": [],
      "stateMutability": "nonpayable",
      "type": "constructor"
    },
    {
      "anonymous": false,
      "inputs": [
        {
          "indexed": true,
          "internalType": "address",
          "name": "owner",
          "type": "address"
        },
        {
          "indexed": true,
          "internalType": "address",
          "name": "approved",
          "type": "address"
        },
        {
          "indexed": true,
          "internalType": "uint256",
          "name": "tokenId",
          "type": "uint256"
        }
      ],
      "name": "Approval",
      "type": "event"
    },
    {
      "anonymous": false,
      "inputs": [
        {
          "indexed": true,
          "internalType": "address",
          "name": "owner",
          "type": "address"
        },
        {
          "indexed": true,
          "internalType": "address",
          "name": "operator",
          "type": "address"
        },
        {
          "indexed": false,
          "internalType": "bool",
          "name": "approved",
          "type": "bool"
        }
      ],
      "name": "ApprovalForAll",
      "type": "event"
    },
    {
      "anonymous": false,
      "inputs": [
        {
          "indexed": true,
          "internalType": "address",
          "name": "previousOwner",
          "type": "address"
        },
        {
          "indexed": true,
          "internalType": "address",
          "name": "newOwner",
          "type": "address"
        }
      ],
      "name": "OwnershipTransferred",
      "type": "event"
    },
    {
      "anonymous": false,
      "inputs": [
        {
          "indexed": true,
          "internalType": "address",
          "name": "from",
          "type": "address"
        },
        {
          "indexed": true,
          "internalType": "address",
          "name": "to",
          "type": "address"
        },
        {
          "indexed": true,
          "internalType": "uint256",
          "name": "tokenId",
          "type": "uint256"
        }
      ],
      "name": "Transfer",
      "type": "event"
    },
    {
      "inputs": [
        {
          "internalType": "address",
          "name": "to",
          "type": "address"
        },
        {
          "internalType": "uint256",
          "name": "tokenId",
          "type": "uint256"
        }
      ],
      "name": "approve",
      "outputs": [],
      "stateMutability": "nonpayable",
      "type": "function"
    },
    {
      "inputs": [
        {
          "internalType": "address",
          "name": "owner",
          "type": "address"
        }
      ],
      "name": "balanceOf",
      "outputs": [
        {
          "internalType": "uint256",
          "name": "",
          "type": "uint256"
        }
      ],
      "stateMutability": "view",
      "type": "function"
    },
    {
      "inputs": [],
      "name": "getAlltoken",
      "outputs": [
        {
          "components": [
            {
              "internalType": "uint256",
              "name": "id",
              "type": "uint256"
            },
            {
              "internalType": "string",
              "name": "uri",
              "type": "string"
            },
            {
              "internalType": "string",
              "name": "space",
              "type": "string"
            }
          ],
          "internalType": "struct ProfileImageNfts.RenderToken[]",
          "name": "",
          "type": "tuple[]"
        }
      ],
      "stateMutability": "view",
      "type": "function"
    },
    {
      "inputs": [
        {
          "internalType": "uint256",
          "name": "tokenId",
          "type": "uint256"
        }
      ],
      "name": "getApproved",
      "outputs": [
        {
          "internalType": "address",
          "name": "",
          "type": "address"
        }
      ],
      "stateMutability": "view",
      "type": "function"
    },
    {
      "inputs": [
        {
          "internalType": "address",
          "name": "owner",
          "type": "address"
        },
        {
          "internalType": "address",
          "name": "operator",
          "type": "address"
        }
      ],
      "name": "isApprovedForAll",
      "outputs": [
        {
          "internalType": "bool",
          "name": "",
          "type": "bool"
        }
      ],
      "stateMutability": "view",
      "type": "function"
    },
    {
      "inputs": [
        {
          "internalType": "address",
          "name": "recipients",
          "type": "address"
        },
        {
          "internalType": "string",
          "name": "_uri",
          "type": "string"
        }
      ],
      "name": "mint",
      "outputs": [
        {
          "internalType": "uint256",
          "name": "",
          "type": "uint256"
        }
      ],
      "stateMutability": "nonpayable",
      "type": "function"
    },
    {
      "inputs": [],
      "name": "name",
      "outputs": [
        {
          "internalType": "string",
          "name": "",
          "type": "string"
        }
      ],
      "stateMutability": "view",
      "type": "function"
    },
    {
      "inputs": [],
      "name": "owner",
      "outputs": [
        {
          "internalType": "address",
          "name": "",
          "type": "address"
        }
      ],
      "stateMutability": "view",
      "type": "function"
    },
    {
      "inputs": [
        {
          "internalType": "uint256",
          "name": "tokenId",
          "type": "uint256"
        }
      ],
      "name": "ownerOf",
      "outputs": [
        {
          "internalType": "address",
          "name": "",
          "type": "address"
        }
      ],
      "stateMutability": "view",
      "type": "function"
    },
    {
      "inputs": [],
      "name": "renounceOwnership",
      "outputs": [],
      "stateMutability": "nonpayable",
      "type": "function"
    },
    {
      "inputs": [
        {
          "internalType": "address",
          "name": "from",
          "type": "address"
        },
        {
          "internalType": "address",
          "name": "to",
          "type": "address"
        },
        {
          "internalType": "uint256",
          "name": "tokenId",
          "type": "uint256"
        }
      ],
      "name": "safeTransferFrom",
      "outputs": [],
      "stateMutability": "nonpayable",
      "type": "function"
    },
    {
      "inputs": [
        {
          "internalType": "address",
          "name": "from",
          "type": "address"
        },
        {
          "internalType": "address",
          "name": "to",
          "type": "address"
        },
        {
          "internalType": "uint256",
          "name": "tokenId",
          "type": "uint256"
        },
        {
          "internalType": "bytes",
          "name": "_data",
          "type": "bytes"
        }
      ],
      "name": "safeTransferFrom",
      "outputs": [],
      "stateMutability": "nonpayable",
      "type": "function"
    },
    {
      "inputs": [
        {
          "internalType": "address",
          "name": "operator",
          "type": "address"
        },
        {
          "internalType": "bool",
          "name": "approved",
          "type": "bool"
        }
      ],
      "name": "setApprovalForAll",
      "outputs": [],
      "stateMutability": "nonpayable",
      "type": "function"
    },
    {
      "inputs": [
        {
          "internalType": "bytes4",
          "name": "interfaceId",
          "type": "bytes4"
        }
      ],
      "name": "supportsInterface",
      "outputs": [
        {
          "internalType": "bool",
          "name": "",
          "type": "bool"
        }
      ],
      "stateMutability": "view",
      "type": "function"
    },
    {
      "inputs": [],
      "name": "symbol",
      "outputs": [
        {
          "internalType": "string",
          "name": "",
          "type": "string"
        }
      ],
      "stateMutability": "view",
      "type": "function"
    },
    {
      "inputs": [
        {
          "internalType": "uint256",
          "name": "tokenId",
          "type": "uint256"
        }
      ],
      "name": "tokenURI",
      "outputs": [
        {
          "internalType": "string",
          "name": "",
          "type": "string"
        }
      ],
      "stateMutability": "view",
      "type": "function"
    },
    {
      "inputs": [
        {
          "internalType": "address",
          "name": "from",
          "type": "address"
        },
        {
          "internalType": "address",
          "name": "to",
          "type": "address"
        },
        {
          "internalType": "uint256",
          "name": "tokenId",
          "type": "uint256"
        }
      ],
      "name": "transferFrom",
      "outputs": [],
      "stateMutability": "nonpayable",
      "type": "function"
    },
    {
      "inputs": [
        {
          "internalType": "address",
          "name": "newOwner",
          "type": "address"
        }
      ],
      "name": "transferOwnership",
      "outputs": [],
      "stateMutability": "nonpayable",
      "type": "function"
    }
  ],
  "bytecode": "0x60806040523480156200001157600080fd5b506040518060400160405280601081526020017f50726f66696c65496d6167654e667473000000000000000000000000000000008152506040518060400160405280600381526020017f50494e0000000000000000000000000000000000000000000000000000000000815250816000908051906020019062000096929190620001a6565b508060019080519060200190620000af929190620001a6565b505050620000d2620000c6620000d860201b60201c565b620000e060201b60201c565b620002bb565b600033905090565b6000600660009054906101000a900473ffffffffffffffffffffffffffffffffffffffff16905081600660006101000a81548173ffffffffffffffffffffffffffffffffffffffff021916908373ffffffffffffffffffffffffffffffffffffffff1602179055508173ffffffffffffffffffffffffffffffffffffffff168173ffffffffffffffffffffffffffffffffffffffff167f8be0079c531659141344cd1fd0a4f28419497f9722a3daafe3b4186f6b6457e060405160405180910390a35050565b828054620001b49062000256565b90600052602060002090601f016020900481019282620001d8576000855562000224565b82601f10620001f357805160ff191683800117855562000224565b8280016001018555821562000224579182015b828111156200022357825182559160200191906001019062000206565b5b50905062000233919062000237565b5090565b5b808211156200025257600081600090555060010162000238565b5090565b600060028204905060018216806200026f57607f821691505b602082108114156200028657620002856200028c565b5b50919050565b7f4e487b7100000000000000000000000000000000000000000000000000000000600052602260045260246000fd5b612d3680620002cb6000396000f3fe608060405234801561001057600080fd5b50600436106101165760003560e01c8063715018a6116100a2578063b88d4fde11610071578063b88d4fde146102cd578063c87b56dd146102e9578063d0def52114610319578063e985e9c514610349578063f2fde38b1461037957610116565b8063715018a61461026b5780638da5cb5b1461027557806395d89b4114610293578063a22cb465146102b157610116565b806323b872dd116100e957806323b872dd146101b557806328904431146101d157806342842e0e146101ef5780636352211e1461020b57806370a082311461023b57610116565b806301ffc9a71461011b57806306fdde031461014b578063081812fc14610169578063095ea7b314610199575b600080fd5b61013560048036038101906101309190611d66565b610395565b6040516101429190612261565b60405180910390f35b610153610477565b604051610160919061227c565b60405180910390f35b610183600480360381019061017e9190611db8565b610509565b60405161019091906121d8565b60405180910390f35b6101b360048036038101906101ae9190611d2a565b61058e565b005b6101cf60048036038101906101ca9190611bd0565b6106a6565b005b6101d9610706565b6040516101e6919061223f565b60405180910390f35b61020960048036038101906102049190611bd0565b610845565b005b61022560048036038101906102209190611db8565b610865565b60405161023291906121d8565b60405180910390f35b61025560048036038101906102509190611b6b565b610917565b604051610262919061249e565b60405180910390f35b6102736109cf565b005b61027d610a57565b60405161028a91906121d8565b60405180910390f35b61029b610a81565b6040516102a8919061227c565b60405180910390f35b6102cb60048036038101906102c69190611c9a565b610b13565b005b6102e760048036038101906102e29190611c1f565b610b29565b005b61030360048036038101906102fe9190611db8565b610b8b565b604051610310919061227c565b60405180910390f35b610333600480360381019061032e9190611cd6565b610c7e565b604051610340919061249e565b60405180910390f35b610363600480360381019061035e9190611b94565b610cb5565b6040516103709190612261565b60405180910390f35b610393600480360381019061038e9190611b6b565b610d49565b005b60007f80ac58cd000000000000000000000000000000000000000000000000000000007bffffffffffffffffffffffffffffffffffffffffffffffffffffffff1916827bffffffffffffffffffffffffffffffffffffffffffffffffffffffff1916148061046057507f5b5e139f000000000000000000000000000000000000000000000000000000007bffffffffffffffffffffffffffffffffffffffffffffffffffffffff1916827bffffffffffffffffffffffffffffffffffffffffffffffffffffffff1916145b80610470575061046f82610e41565b5b9050919050565b60606000805461048690612702565b80601f01602080910402602001604051908101604052809291908181526020018280546104b290612702565b80156104ff5780601f106104d4576101008083540402835291602001916104ff565b820191906000526020600020905b8154815290600101906020018083116104e257829003601f168201915b5050505050905090565b600061051482610eab565b610553576040517f08c379a000000000000000000000000000000000000000000000000000000000815260040161054a906123de565b60405180910390fd5b6004600083815260200190815260200160002060009054906101000a900473ffffffffffffffffffffffffffffffffffffffff169050919050565b600061059982610865565b90508073ffffffffffffffffffffffffffffffffffffffff168373ffffffffffffffffffffffffffffffffffffffff16141561060a576040517f08c379a00000000000000000000000000000000000000000000000000000000081526004016106019061245e565b60405180910390fd5b8073ffffffffffffffffffffffffffffffffffffffff16610629610f17565b73ffffffffffffffffffffffffffffffffffffffff161480610658575061065781610652610f17565b610cb5565b5b610697576040517f08c379a000000000000000000000000000000000000000000000000000000000815260040161068e9061235e565b60405180910390fd5b6106a18383610f1f565b505050565b6106b76106b1610f17565b82610fd8565b6106f6576040517f08c379a00000000000000000000000000000000000000000000000000000000081526004016106ed9061247e565b60405180910390fd5b6107018383836110b6565b505050565b606060006107146007611312565b905060008167ffffffffffffffff811115610758577f4e487b7100000000000000000000000000000000000000000000000000000000600052604160045260246000fd5b60405190808252806020026020018201604052801561079157816020015b61077e61196e565b8152602001906001900390816107765790505b50905060005b82811161083c576107a781610eab565b156108295760006107b782610b8b565b905060405180606001604052808381526020018281526020016040518060200160405280600081525081525083838151811061081c577f4e487b7100000000000000000000000000000000000000000000000000000000600052603260045260246000fd5b6020026020010181905250505b808061083490612765565b915050610797565b50809250505090565b61086083838360405180602001604052806000815250610b29565b505050565b6000806002600084815260200190815260200160002060009054906101000a900473ffffffffffffffffffffffffffffffffffffffff169050600073ffffffffffffffffffffffffffffffffffffffff168173ffffffffffffffffffffffffffffffffffffffff16141561090e576040517f08c379a00000000000000000000000000000000000000000000000000000000081526004016109059061239e565b60405180910390fd5b80915050919050565b60008073ffffffffffffffffffffffffffffffffffffffff168273ffffffffffffffffffffffffffffffffffffffff161415610988576040517f08c379a000000000000000000000000000000000000000000000000000000000815260040161097f9061237e565b60405180910390fd5b600360008373ffffffffffffffffffffffffffffffffffffffff1673ffffffffffffffffffffffffffffffffffffffff168152602001908152602001600020549050919050565b6109d7610f17565b73ffffffffffffffffffffffffffffffffffffffff166109f5610a57565b73ffffffffffffffffffffffffffffffffffffffff1614610a4b576040517f08c379a0000000000000000000000000000000000000000000000000000000008152600401610a42906123fe565b60405180910390fd5b610a556000611320565b565b6000600660009054906101000a900473ffffffffffffffffffffffffffffffffffffffff16905090565b606060018054610a9090612702565b80601f0160208091040260200160405190810160405280929190818152602001828054610abc90612702565b8015610b095780601f10610ade57610100808354040283529160200191610b09565b820191906000526020600020905b815481529060010190602001808311610aec57829003601f168201915b5050505050905090565b610b25610b1e610f17565b83836113e6565b5050565b610b3a610b34610f17565b83610fd8565b610b79576040517f08c379a0000000000000000000000000000000000000000000000000000000008152600401610b709061247e565b60405180910390fd5b610b8584848484611553565b50505050565b6060610b9682610eab565b610bd5576040517f08c379a0000000000000000000000000000000000000000000000000000000008152600401610bcc9061243e565b60405180910390fd5b6000600860008481526020019081526020016000208054610bf590612702565b80601f0160208091040260200160405190810160405280929190818152602001828054610c2190612702565b8015610c6e5780601f10610c4357610100808354040283529160200191610c6e565b820191906000526020600020905b815481529060010190602001808311610c5157829003601f168201915b5050505050905080915050919050565b600080610c8b6007611312565b9050610c9784826115af565b610ca1818461177d565b610cab60076117a9565b8091505092915050565b6000600560008473ffffffffffffffffffffffffffffffffffffffff1673ffffffffffffffffffffffffffffffffffffffff16815260200190815260200160002060008373ffffffffffffffffffffffffffffffffffffffff1673ffffffffffffffffffffffffffffffffffffffff16815260200190815260200160002060009054906101000a900460ff16905092915050565b610d51610f17565b73ffffffffffffffffffffffffffffffffffffffff16610d6f610a57565b73ffffffffffffffffffffffffffffffffffffffff1614610dc5576040517f08c379a0000000000000000000000000000000000000000000000000000000008152600401610dbc906123fe565b60405180910390fd5b600073ffffffffffffffffffffffffffffffffffffffff168173ffffffffffffffffffffffffffffffffffffffff161415610e35576040517f08c379a0000000000000000000000000000000000000000000000000000000008152600401610e2c906122be565b60405180910390fd5b610e3e81611320565b50565b60007f01ffc9a7000000000000000000000000000000000000000000000000000000007bffffffffffffffffffffffffffffffffffffffffffffffffffffffff1916827bffffffffffffffffffffffffffffffffffffffffffffffffffffffff1916149050919050565b60008073ffffffffffffffffffffffffffffffffffffffff166002600084815260200190815260200160002060009054906101000a900473ffffffffffffffffffffffffffffffffffffffff1673ffffffffffffffffffffffffffffffffffffffff1614159050919050565b600033905090565b816004600083815260200190815260200160002060006101000a81548173ffffffffffffffffffffffffffffffffffffffff021916908373ffffffffffffffffffffffffffffffffffffffff160217905550808273ffffffffffffffffffffffffffffffffffffffff16610f9283610865565b73ffffffffffffffffffffffffffffffffffffffff167f8c5be1e5ebec7d5bd14f71427d1e84f3dd0314c0f7b2291e5b200ac8c7c3b92560405160405180910390a45050565b6000610fe382610eab565b611022576040517f08c379a00000000000000000000000000000000000000000000000000000000081526004016110199061233e565b60405180910390fd5b600061102d83610865565b90508073ffffffffffffffffffffffffffffffffffffffff168473ffffffffffffffffffffffffffffffffffffffff16148061109c57508373ffffffffffffffffffffffffffffffffffffffff1661108484610509565b73ffffffffffffffffffffffffffffffffffffffff16145b806110ad57506110ac8185610cb5565b5b91505092915050565b8273ffffffffffffffffffffffffffffffffffffffff166110d682610865565b73ffffffffffffffffffffffffffffffffffffffff161461112c576040517f08c379a00000000000000000000000000000000000000000000000000000000081526004016111239061241e565b60405180910390fd5b600073ffffffffffffffffffffffffffffffffffffffff168273ffffffffffffffffffffffffffffffffffffffff16141561119c576040517f08c379a0000000000000000000000000000000000000000000000000000000008152600401611193906122fe565b60405180910390fd5b6111a78383836117bf565b6111b2600082610f1f565b6001600360008573ffffffffffffffffffffffffffffffffffffffff1673ffffffffffffffffffffffffffffffffffffffff16815260200190815260200160002060008282546112029190612618565b925050819055506001600360008473ffffffffffffffffffffffffffffffffffffffff1673ffffffffffffffffffffffffffffffffffffffff168152602001908152602001600020600082825461125991906125c2565b92505081905550816002600083815260200190815260200160002060006101000a81548173ffffffffffffffffffffffffffffffffffffffff021916908373ffffffffffffffffffffffffffffffffffffffff160217905550808273ffffffffffffffffffffffffffffffffffffffff168473ffffffffffffffffffffffffffffffffffffffff167fddf252ad1be2c89b69c2b068fc378daa952ba7f163c4a11628f55a4df523b3ef60405160405180910390a4505050565b600081600001549050919050565b6000600660009054906101000a900473ffffffffffffffffffffffffffffffffffffffff16905081600660006101000a81548173ffffffffffffffffffffffffffffffffffffffff021916908373ffffffffffffffffffffffffffffffffffffffff1602179055508173ffffffffffffffffffffffffffffffffffffffff168173ffffffffffffffffffffffffffffffffffffffff167f8be0079c531659141344cd1fd0a4f28419497f9722a3daafe3b4186f6b6457e060405160405180910390a35050565b8173ffffffffffffffffffffffffffffffffffffffff168373ffffffffffffffffffffffffffffffffffffffff161415611455576040517f08c379a000000000000000000000000000000000000000000000000000000000815260040161144c9061231e565b60405180910390fd5b80600560008573ffffffffffffffffffffffffffffffffffffffff1673ffffffffffffffffffffffffffffffffffffffff16815260200190815260200160002060008473ffffffffffffffffffffffffffffffffffffffff1673ffffffffffffffffffffffffffffffffffffffff16815260200190815260200160002060006101000a81548160ff0219169083151502179055508173ffffffffffffffffffffffffffffffffffffffff168373ffffffffffffffffffffffffffffffffffffffff167f17307eab39ab6107e8899845ad3d59bd9653f200f220920489ca2b5937696c31836040516115469190612261565b60405180910390a3505050565b61155e8484846110b6565b61156a848484846117c4565b6115a9576040517f08c379a00000000000000000000000000000000000000000000000000000000081526004016115a09061229e565b60405180910390fd5b50505050565b600073ffffffffffffffffffffffffffffffffffffffff168273ffffffffffffffffffffffffffffffffffffffff16141561161f576040517f08c379a0000000000000000000000000000000000000000000000000000000008152600401611616906123be565b60405180910390fd5b61162881610eab565b15611668576040517f08c379a000000000000000000000000000000000000000000000000000000000815260040161165f906122de565b60405180910390fd5b611674600083836117bf565b6001600360008473ffffffffffffffffffffffffffffffffffffffff1673ffffffffffffffffffffffffffffffffffffffff16815260200190815260200160002060008282546116c491906125c2565b92505081905550816002600083815260200190815260200160002060006101000a81548173ffffffffffffffffffffffffffffffffffffffff021916908373ffffffffffffffffffffffffffffffffffffffff160217905550808273ffffffffffffffffffffffffffffffffffffffff16600073ffffffffffffffffffffffffffffffffffffffff167fddf252ad1be2c89b69c2b068fc378daa952ba7f163c4a11628f55a4df523b3ef60405160405180910390a45050565b806008600084815260200190815260200160002090805190602001906117a492919061198f565b505050565b6001816000016000828254019250508190555050565b505050565b60006117e58473ffffffffffffffffffffffffffffffffffffffff1661195b565b1561194e578373ffffffffffffffffffffffffffffffffffffffff1663150b7a0261180e610f17565b8786866040518563ffffffff1660e01b815260040161183094939291906121f3565b602060405180830381600087803b15801561184a57600080fd5b505af192505050801561187b57506040513d601f19601f820116820180604052508101906118789190611d8f565b60015b6118fe573d80600081146118ab576040519150601f19603f3d011682016040523d82523d6000602084013e6118b0565b606091505b506000815114156118f6576040517f08c379a00000000000000000000000000000000000000000000000000000000081526004016118ed9061229e565b60405180910390fd5b805181602001fd5b63150b7a0260e01b7bffffffffffffffffffffffffffffffffffffffffffffffffffffffff1916817bffffffffffffffffffffffffffffffffffffffffffffffffffffffff191614915050611953565b600190505b949350505050565b600080823b905060008111915050919050565b60405180606001604052806000815260200160608152602001606081525090565b82805461199b90612702565b90600052602060002090601f0160209004810192826119bd5760008555611a04565b82601f106119d657805160ff1916838001178555611a04565b82800160010185558215611a04579182015b82811115611a035782518255916020019190600101906119e8565b5b509050611a119190611a15565b5090565b5b80821115611a2e576000816000905550600101611a16565b5090565b6000611a45611a40846124de565b6124b9565b905082815260208101848484011115611a5d57600080fd5b611a688482856126c0565b509392505050565b6000611a83611a7e8461250f565b6124b9565b905082815260208101848484011115611a9b57600080fd5b611aa68482856126c0565b509392505050565b600081359050611abd81612ca4565b92915050565b600081359050611ad281612cbb565b92915050565b600081359050611ae781612cd2565b92915050565b600081519050611afc81612cd2565b92915050565b600082601f830112611b1357600080fd5b8135611b23848260208601611a32565b91505092915050565b600082601f830112611b3d57600080fd5b8135611b4d848260208601611a70565b91505092915050565b600081359050611b6581612ce9565b92915050565b600060208284031215611b7d57600080fd5b6000611b8b84828501611aae565b91505092915050565b60008060408385031215611ba757600080fd5b6000611bb585828601611aae565b9250506020611bc685828601611aae565b9150509250929050565b600080600060608486031215611be557600080fd5b6000611bf386828701611aae565b9350506020611c0486828701611aae565b9250506040611c1586828701611b56565b9150509250925092565b60008060008060808587031215611c3557600080fd5b6000611c4387828801611aae565b9450506020611c5487828801611aae565b9350506040611c6587828801611b56565b925050606085013567ffffffffffffffff811115611c8257600080fd5b611c8e87828801611b02565b91505092959194509250565b60008060408385031215611cad57600080fd5b6000611cbb85828601611aae565b9250506020611ccc85828601611ac3565b9150509250929050565b60008060408385031215611ce957600080fd5b6000611cf785828601611aae565b925050602083013567ffffffffffffffff811115611d1457600080fd5b611d2085828601611b2c565b9150509250929050565b60008060408385031215611d3d57600080fd5b6000611d4b85828601611aae565b9250506020611d5c85828601611b56565b9150509250929050565b600060208284031215611d7857600080fd5b6000611d8684828501611ad8565b91505092915050565b600060208284031215611da157600080fd5b6000611daf84828501611aed565b91505092915050565b600060208284031215611dca57600080fd5b6000611dd884828501611b56565b91505092915050565b6000611ded8383612163565b905092915050565b611dfe8161264c565b82525050565b6000611e0f82612550565b611e19818561257e565b935083602082028501611e2b85612540565b8060005b85811015611e675784840389528151611e488582611de1565b9450611e5383612571565b925060208a01995050600181019050611e2f565b50829750879550505050505092915050565b611e828161265e565b82525050565b6000611e938261255b565b611e9d818561258f565b9350611ead8185602086016126cf565b611eb68161283b565b840191505092915050565b6000611ecc82612566565b611ed681856125a0565b9350611ee68185602086016126cf565b611eef8161283b565b840191505092915050565b6000611f0582612566565b611f0f81856125b1565b9350611f1f8185602086016126cf565b611f288161283b565b840191505092915050565b6000611f406032836125b1565b9150611f4b8261284c565b604082019050919050565b6000611f636026836125b1565b9150611f6e8261289b565b604082019050919050565b6000611f86601c836125b1565b9150611f91826128ea565b602082019050919050565b6000611fa96024836125b1565b9150611fb482612913565b604082019050919050565b6000611fcc6019836125b1565b9150611fd782612962565b602082019050919050565b6000611fef602c836125b1565b9150611ffa8261298b565b604082019050919050565b60006120126038836125b1565b915061201d826129da565b604082019050919050565b6000612035602a836125b1565b915061204082612a29565b604082019050919050565b60006120586029836125b1565b915061206382612a78565b604082019050919050565b600061207b6020836125b1565b915061208682612ac7565b602082019050919050565b600061209e602c836125b1565b91506120a982612af0565b604082019050919050565b60006120c16020836125b1565b91506120cc82612b3f565b602082019050919050565b60006120e46029836125b1565b91506120ef82612b68565b604082019050919050565b6000612107602f836125b1565b915061211282612bb7565b604082019050919050565b600061212a6021836125b1565b915061213582612c06565b604082019050919050565b600061214d6031836125b1565b915061215882612c55565b604082019050919050565b600060608301600083015161217b60008601826121ba565b50602083015184820360208601526121938282611ec1565b915050604083015184820360408601526121ad8282611ec1565b9150508091505092915050565b6121c3816126b6565b82525050565b6121d2816126b6565b82525050565b60006020820190506121ed6000830184611df5565b92915050565b60006080820190506122086000830187611df5565b6122156020830186611df5565b61222260408301856121c9565b81810360608301526122348184611e88565b905095945050505050565b600060208201905081810360008301526122598184611e04565b905092915050565b60006020820190506122766000830184611e79565b92915050565b600060208201905081810360008301526122968184611efa565b905092915050565b600060208201905081810360008301526122b781611f33565b9050919050565b600060208201905081810360008301526122d781611f56565b9050919050565b600060208201905081810360008301526122f781611f79565b9050919050565b6000602082019050818103600083015261231781611f9c565b9050919050565b6000602082019050818103600083015261233781611fbf565b9050919050565b6000602082019050818103600083015261235781611fe2565b9050919050565b6000602082019050818103600083015261237781612005565b9050919050565b6000602082019050818103600083015261239781612028565b9050919050565b600060208201905081810360008301526123b78161204b565b9050919050565b600060208201905081810360008301526123d78161206e565b9050919050565b600060208201905081810360008301526123f781612091565b9050919050565b60006020820190508181036000830152612417816120b4565b9050919050565b60006020820190508181036000830152612437816120d7565b9050919050565b60006020820190508181036000830152612457816120fa565b9050919050565b600060208201905081810360008301526124778161211d565b9050919050565b6000602082019050818103600083015261249781612140565b9050919050565b60006020820190506124b360008301846121c9565b92915050565b60006124c36124d4565b90506124cf8282612734565b919050565b6000604051905090565b600067ffffffffffffffff8211156124f9576124f861280c565b5b6125028261283b565b9050602081019050919050565b600067ffffffffffffffff82111561252a5761252961280c565b5b6125338261283b565b9050602081019050919050565b6000819050602082019050919050565b600081519050919050565b600081519050919050565b600081519050919050565b6000602082019050919050565b600082825260208201905092915050565b600082825260208201905092915050565b600082825260208201905092915050565b600082825260208201905092915050565b60006125cd826126b6565b91506125d8836126b6565b9250827fffffffffffffffffffffffffffffffffffffffffffffffffffffffffffffffff0382111561260d5761260c6127ae565b5b828201905092915050565b6000612623826126b6565b915061262e836126b6565b925082821015612641576126406127ae565b5b828203905092915050565b600061265782612696565b9050919050565b60008115159050919050565b60007fffffffff0000000000000000000000000000000000000000000000000000000082169050919050565b600073ffffffffffffffffffffffffffffffffffffffff82169050919050565b6000819050919050565b82818337600083830152505050565b60005b838110156126ed5780820151818401526020810190506126d2565b838111156126fc576000848401525b50505050565b6000600282049050600182168061271a57607f821691505b6020821081141561272e5761272d6127dd565b5b50919050565b61273d8261283b565b810181811067ffffffffffffffff8211171561275c5761275b61280c565b5b80604052505050565b6000612770826126b6565b91507fffffffffffffffffffffffffffffffffffffffffffffffffffffffffffffffff8214156127a3576127a26127ae565b5b600182019050919050565b7f4e487b7100000000000000000000000000000000000000000000000000000000600052601160045260246000fd5b7f4e487b7100000000000000000000000000000000000000000000000000000000600052602260045260246000fd5b7f4e487b7100000000000000000000000000000000000000000000000000000000600052604160045260246000fd5b6000601f19601f8301169050919050565b7f4552433732313a207472616e7366657220746f206e6f6e20455243373231526560008201527f63656976657220696d706c656d656e7465720000000000000000000000000000602082015250565b7f4f776e61626c653a206e6577206f776e657220697320746865207a65726f206160008201527f6464726573730000000000000000000000000000000000000000000000000000602082015250565b7f4552433732313a20746f6b656e20616c7265616479206d696e74656400000000600082015250565b7f4552433732313a207472616e7366657220746f20746865207a65726f2061646460008201527f7265737300000000000000000000000000000000000000000000000000000000602082015250565b7f4552433732313a20617070726f766520746f2063616c6c657200000000000000600082015250565b7f4552433732313a206f70657261746f7220717565727920666f72206e6f6e657860008201527f697374656e7420746f6b656e0000000000000000000000000000000000000000602082015250565b7f4552433732313a20617070726f76652063616c6c6572206973206e6f74206f7760008201527f6e6572206e6f7220617070726f76656420666f7220616c6c0000000000000000602082015250565b7f4552433732313a2062616c616e636520717565727920666f7220746865207a6560008201527f726f206164647265737300000000000000000000000000000000000000000000602082015250565b7f4552433732313a206f776e657220717565727920666f72206e6f6e657869737460008201527f656e7420746f6b656e0000000000000000000000000000000000000000000000602082015250565b7f4552433732313a206d696e7420746f20746865207a65726f2061646472657373600082015250565b7f4552433732313a20617070726f76656420717565727920666f72206e6f6e657860008201527f697374656e7420746f6b656e0000000000000000000000000000000000000000602082015250565b7f4f776e61626c653a2063616c6c6572206973206e6f7420746865206f776e6572600082015250565b7f4552433732313a207472616e73666572206f6620746f6b656e2074686174206960008201527f73206e6f74206f776e0000000000000000000000000000000000000000000000602082015250565b7f4552433732314d657461646174613a2055524920717565727920666f72206e6f60008201527f6e6578697374656e7420746f6b656e0000000000000000000000000000000000602082015250565b7f4552433732313a20617070726f76616c20746f2063757272656e74206f776e6560008201527f7200000000000000000000000000000000000000000000000000000000000000602082015250565b7f4552433732313a207472616e736665722063616c6c6572206973206e6f74206f60008201527f776e6572206e6f7220617070726f766564000000000000000000000000000000602082015250565b612cad8161264c565b8114612cb857600080fd5b50565b612cc48161265e565b8114612ccf57600080fd5b50565b612cdb8161266a565b8114612ce657600080fd5b50565b612cf2816126b6565b8114612cfd57600080fd5b5056fea264697066735822122009ee43a02538c6e6f0e5bc910f6d15fd45f50a7e37c7c04236a9bc6e146e0eab64736f6c63430008020033",
  "linkReferences": {},
  "deployedLinkReferences": {}
}